:100020003F01CB6A3F01BB6A3A01506B3F01030EAF
:10003000C36E3F01CD6A3F01BD6A3A01706B3F015B
:10004000000EC56E00EE10F03F0E106E060E116E23
:100050005B0E126E4F0E136E660E146E6D0E156EE5
:100060007D0E166E070E176E7F0E186E6F0E196ED0
:10007000770E1A6E7C0E1B6E390E1C6E5E0E1D6E98
:10008000790E1E6E710E1F6EEF50CD6ECBA268EF13
:1000900000F0CBA068EF00F04EEF00F000EE10F0A3
:1000A00070EF00F000EE1FF070EF00F0EF501F62F5
:1000B0005CEF00F04EEF00F0E92A70EF00F0EF5037
:1000C000106265EF00F052EF00F0E90670EF00F00B
:1000D000CBB256EF00F0CBB05FEF00F046EF00F090
:1000E000EF50CD6E76EC00F046EF00F0640E216E1E
:1000F000640E226E080E236E2106FEE1640E216E50
:0E0100002206FAE1640E226E2306F6E11200DA
:020000040030CA
:0A000000F8FFFFFF9FFFFFFFFFFF67
:00000001FF
