:0400000057EF00F0C6
:100008002B002B002B002B002B002B002B002B0090
:10001800BD082B002B002B002B002B002B002B00E6
:100028002B002B002B002B002B002B002B002B0070
:100038002B002B002B002B002B002B002B002B0060
:100048002B002B002B002B002B002B002B002B0050
:100058002B002B002B002B002B002B002B002B0040
:100068002B002B002B002B002B002B002B002B0030
:100078002B002B002B002B002B002B002B002B0020
:100088002B002B002B002B002B002B002B002B0010
:100098002B002B002B002B002B002B002B002B0000
:0A00A8002B002B00FF00F4EF11F015
:10200000003F065B4F666D7D077F6F02030099EC12
:1020100011F0146ABC80000EB7EC11F0BEEC10F0A9
:10202000126E1404D8A417EF10F019EF10F01BEF84
:1020300010F009EF10F0030E116E8A0E106E560E9E
:10204000E82EFED7102EFCD7112EFAD768EC10F030
:10205000136E1404D8A42FEF10F031EF10F033EF0B
:1020600010F009EF10F0030E116E8A0E106E560E6E
:10207000E82EFED7102EFCD7112EFAD7030E121819
:10208000D8A445EF10F047EF10F054EF10F0020E17
:102090001318D8A44EEF10F050EF10F054EF10F0DA
:1020A000E5EC11F056EF10F055EC11F0060E116E44
:1020B000130E106EAE0EE82EFED7102EFCD7112E8A
:1020C000FAD7000EB7EC11F009EF10F057EF00F05F
:1020D0000F6A0E6A000ECBB4010E0D6E1404D8A464
:1020E00074EF10F076EF10F079EF10F0000EBDEF06
:1020F00010F0CBB47EEF10F080EF10F09FEF10F0F7
:102100000D04D8A486EF10F088EF10F09FEF10F0C8
:102110000F2A090E0F648FEF10F091EF10F093EF7C
:1021200010F0090E0F6E0F50B7EC11F00E6A9C0EF6
:102130000C6ED70EE82EFED70C2EFCD70000000E3A
:10214000CBB4010E0D6E410E0C6EEE0EE82EFED7D6
:102150000C2EFCD700D00E2A0F50D8B4B2EF10F0DE
:10216000B4EF10F06EEF10F01D0E0E64BAEF10F029
:10217000BCEF10F06EEF10F00F5012000F6A0E6AF5
:10218000000ECBB2010E0D6E1404D8A4CAEF10F0ED
:10219000CCEF10F0CFEF10F0000E13EF11F0CBB238
:1021A000D4EF10F0D6EF10F0F5EF10F00D04D8A436
:1021B000DCEF10F0DEEF10F0F5EF10F00F2A090E53
:1021C0000F64E5EF10F0E7EF10F0E9EF10F0090E03
:1021D0000F6E0F50B7EC11F00E6A9C0E0C6ED70EFE
:1021E000E82EFED70C2EFCD70000000ECBB2010E5D
:1021F0000D6E410E0C6EEE0EE82EFED70C2EFCD7A7
:1022000000D00E2A0F50D8B408EF11F00AEF11F0E9
:10221000C4EF10F01D0E0E6410EF11F012EF11F06C
:10222000C4EF10F00F501200BC96056ABC84820EF9
:10223000036EDE0EE82EFED7032EFCD7BC94820E72
:10224000036EDE0EE82EFED7032EFCD7052A070EFE
:1022500005642DEF11F02FEF11F016EF11F0056A64
:10226000BC84020E046E450E036EAA0EE82EFED745
:10227000032EFCD7042EFAD7BC94020E046E450E32
:10228000036EAA0EE82EFED7032EFCD7042EFAD733
:10229000052A030E05644FEF11F051EF11F030EFF6
:1022A00011F0000ECEEC11F012000C6ABC84020E8C
:1022B0000B6E040E0A6EBA0EE82EFED70A2EFCD75D
:1022C0000B2EFAD700D0BC94020E0B6E040E0A6ED1
:1022D000BA0EE82EFED70A2EFCD70B2EFAD700D066
:1022E0000C2A050E0C6477EF11F079EF11F056EF20
:1022F00011F012006F00D8FF06F06F00DCFF07F04E
:102300006F00E0FF08F06F00D4FF09F0010E146EBB
:1023100014EC11F03901A191600027F0F5FF600085
:1023200023F0F8FF60001FF0F7FF60001BF0F6FFDE
:102330001100600E3901D96F020EDF6F3A01506B48
:10234000606B706BC380C382C384C490C496C49412
:10235000C56ABC90BC96BC94BD6A518151835185BD
:10236000D2803901A1919181D28CD28E12000B6E54
:102370000A0E0B60BEEF11F0C0EF11F0CCEF11F0C0
:102380000B50010F0A6E60002BF0F6FF08006F0083
:10239000D7FFBDFFCDEF11F0BD6A1200026E0A0E2D
:1023A0000260D5EF11F0D7EF11F0E3EF11F002501A
:1023B000010F016E600007F0F6FF08006F00D7FF05
:1023C000BDFFE4EF11F0BD6A1200BC861A0E0B6E61
:1023D0005E0E0A6E6E0EE82EFED70A2EFCD70B2E6E
:1023E000FAD700D0BC961200146A080ED56E000E03
:1023F000D66E000ED76E000EF86E200EF76E00013E
:0424000007EF10F0E2
:020000040030CA
:08000000ECDFFDFF9FC7FFFFCD
:00000001FF
