:0400000057EF20F0A6
:1020000000526573657420696E20253275207365F2
:10201000632000466C617420202020202020202096
:10202000202020005368616B652020202020202084
:10203000202020200054696C745F4C656674202059
:1020400020202020200048414C54205374617465A6
:102050002020202020200054696C745F526967683A
:102060007420202020202000526573657420696E42
:1020700020203020736563200043616C69627261C7
:1020800074696E672E2E2E00206D2F733220202053
:0D2090000025642E2530326400583A00000F
:104008002B102B102B102B102B102B102B10AD144A
:104018002B102B102B102B102B102B102B102B10C0
:104028002B102B102B102B102B102B102B102B10B0
:104038002B102B102B102B102B102B102B102B10A0
:104048002B102B102B102B102B102B102B102B1090
:104058002B102B102B102B102B102B102B102B1080
:104068002B102B102B102B102B102B102B102B1070
:104078002B102B102B102B102B102B102B102B1060
:104088002B102B102B102B102B102B102B102B1050
:104098002B102B102B102B102B102B102B102B1040
:1040A8002B102B10FF000DEF29F00001976B000E6D
:1040B800966F996B000E986F9B6B000E9A6F3A0182
:1040C800506B706B606BC36AC56AC484C496BB6A64
:1040D800BD6ABC96CDEC25F05AEC26F049EC29F0E7
:1040E8006AEC29F00001A605D8A47DEF20F07FEF47
:1040F80020F081EF20F076EC24F0000EA4EC28F0FC
:1041080001C09CF002C09DF0010EA4EC28F001C093
:104118009EF002C09FF0020EA4EC28F001C0A0F0AF
:1041280002C0A1F09CC01AF09DC01BF0E1EC27F082
:104138001AC08CF01BC08DF09EC01AF09FC01BF0F7
:10414800E1EC27F01AC08EF01BC08FF0A0C01AF067
:10415800A1C01BF0E1EC27F01AC090F01BC091F051
:104168000001A4518C5D536EA5518D59546E640E97
:1041780053026F00CCFF55F06F00D0FF56F0540289
:10418800F350562655C001F056C002F0010E046ED9
:104198004A0E036EBBEC23F001C0A2F002C0A3F0EC
:1041A8008EC009F08FC00AF04AEC28F090C009F0E0
:1041B80091C00AF04AEC28F0A2C009F0A3C00AF0A6
:1041C80008EC28F009C00FF00AC010F0DBEC28F06A
:1041D8000FC092F010C093F0000196519C5D0F6ED5
:1041E80097519D59106EDBEC28F00FC053F010C0AA
:1041F80054F0000198519E5D0F6E99519F59106EB1
:10420800DBEC28F00F505324556E10505420566E96
:1042180000019A51A05D0F6E9B51A159106EDBEC05
:1042280028F00F5055240001946F10505620956FB8
:104238009CC096F09DC097F09EC098F09FC099F0E2
:10424800A0C09AF0A1C09BF0955109E18D0E945D34
:10425800D8A031EF21F033EF21F03BEF21F07B0EB6
:10426800016E240E026E6AEC28F06DEF21F0A3BFF8
:1042780047EF21F0A35109E1240EA25DD8A047EF32
:1042880021F049EF21F051EF21F07B0E016E350E40
:10429800026E6AEC28F06DEF21F0A3AF5DEF21F01C
:1042A800DD0EA25DFF0EA359D8B05DEF21F05FEFE0
:1042B80021F067EF21F07B0E016E570E026E6AEC5B
:1042C80028F06DEF21F07B0E016E130E026E6AEC82
:1042D80028F0600E016E990E026E6AEC28F0710EDD
:1042E8003F6E92C040F093C041F07BEC27F0600E27
:1042F800016E710E026E036A98EC26F0600E016E74
:10430800880E026E0250D8A4200E036E98EC26F098
:10431800000E046E7B0E056E066A010EC0EC28F0D6
:10432800000E046E600E056E066A020EC0EC28F0E0
:10433800620E536E660EE82EFED7532EFCD776EF2C
:1043480020F057EF20F02150D96EDA6A6F007FFF16
:10435800F6FF200EF76E000EF86E0800F550250ADD
:10436800D8A4B9EF21F0BBEF21F08DEF22F0215056
:10437800D96EDA6ADF2A586A000E576E57C05BF0AA
:1043880059685A68236AE6EF21F05B822150D96E9A
:10439800DA6ADF2AE6EF21F0010E236EE6EF21F05C
:1043A8002150D96EDA6A6F007FFFF6FF200EF76E94
:1043B800000EF86E0800F550300AD8B4C9EF21F0A5
:1043C800D0EF21F02350D8B4ECEF21F0EEEF21F03C
:1043D800D4EF21F021C001F022C002F01BEC24F040
:1043E80001C057F002C058F058BEFFEF21F0FDEFB2
:1043F80021F004EF22F05B80576C581ED8B0582A81
:104408002150D96EDA6ADF50286E6000A3F0F6FFFB
:10441800200EF76E000EF86E0800F550640AD8B446
:1044280018EF22F01AEF22F02BEF22F06000A3F031
:10443800F6FF200EF76E000EF86E0800F550690AB8
:10444800D8A429EF22F02BEF22F048EF22F02250D7
:10445800D96EDA6A020EDF26DF5CD96EDA6A6F007F
:1044680078FF24F06F0078FF25F02150D96EDA6AC2
:104478002828DF6E20C015F024C016F025C017F0DC
:10448800A2EC22F0A1EF22F06000A3F0F6FF200ECC
:10449800F76E000EF86E0800F550750AD8A457EFAD
:1044A80022F059EF22F087EF22F02250D96EDA6A13
:1044B800020EDF26DF5CD96EDA6A6F0078FF24F01F
:1044C8006F0078FF25F02150D96EDA6A2828DF6E50
:1044D80078EF22F020C015F024C016F025C017F0A0
:1044E80050EC23F0A1EF22F06000A3F0F6FF200EBD
:1044F800F76E000EF86E0800F550750AD8B46EEF26
:1045080022F087EF22F02150D96EDA6ADF2AA1EF74
:1045180022F02150D96EDA6A6F007FFFF6FF200E75
:10452800F76E000EF86E0800F550016E026A20C0A2
:1045380003F025EC25F087EF22F01200010E1A6E29
:1045480017BEA9EF22F0ACEF22F0010EADEF22F07A
:10455800000E1D6E57C01BF058C01CF01D50D8B47B
:10456800B8EF22F0BAEF22F0CFEF22F01B06D8A066
:104578001C061D50D8A4C3EF22F0C5EF22F0CAEFE5
:1045880022F0196A2B0E186ECDEF22F0196A2D0E43
:10459800186E18C01DF01F6A1F0E1E6E0001C66B34
:1045A80000EF23F01E06D8A01F061E50A70FD96ED5
:1045B800DA6A16C001F017C002F0046A0A0E036E28
:1045C800CEEC24F001C00FF002C010F0DBEC28F0B4
:1045D8000F50300FDF6E1A6A1B06D8A01C0616C0D3
:1045E80001F017C002F0046A0A0E036EBBEC23F058
:1045F80001C016F002C017F01FBE0BEF23F01F50CA
:1046080008E11E04D8A00BEF23F00DEF23F032EFE2
:1046180023F016501710D8A414EF23F016EF23F048
:10462800D6EF22F01A50D8A41CEF23F01EEF23F087
:10463800D6EF22F01CBE29EF23F01C5008E11B0422
:10464800D8A029EF23F02BEF23F032EF23F05BB251
:1046580030EF23F032EF23F0D6EF22F01D50D8B41C
:1046680038EF23F03AEF23F044EF23F01E06D8A0EA
:104678001F061E50A70FD96EDA6A600077F0DFFFB9
:1046880015C00EF01E50A70F0F6E1BC010F01CC0F7
:1046980011F018EC26F01200010E186E57C019F030
:1046A80058C01AF01C6A1F0E1B6E0001C66B81EF02
:1046B80023F01B06D8A01C061B50A70FD96EDA6A78
:1046C80016C001F017C002F0046A0A0E036EAFECC0
:1046D80027F00150300FDF6E186A1906D8A01A06A5
:1046E80016C001F017C002F0046A0A0E036ED4EC7B
:1046F80026F001C016F002C017F01B501C10D8B4E9
:1047080088EF23F08AEF23F0AFEF23F0165017104D
:10471800D8A491EF23F093EF23F05DEF23F0185026
:10472800D8A499EF23F09BEF23F05DEF23F01ABE96
:10473800A6EF23F01A5008E11904D8A0A6EF23F039
:10474800A8EF23F0AFEF23F05BB2ADEF23F0AFEFAC
:1047580023F05DEF23F015C00EF01B50A70F0F6E6E
:1047680019C010F01AC011F018EC26F01200066AF1
:1047780004BEC3EF23F0C1EF23F0C9EF23F0036CAD
:10478800041ED8B0042A010E066E02BED0EF23F034
:10479800CEEF23F0D6EF23F0016C021ED8B0022A28
:1047A800010E061A086A000E076E03500410D8B4EA
:1047B800E0EF23F0E2EF23F00AEF24F0010E056E9C
:1047C800EAEF23F0D89003360436052A04AEEFEF5B
:1047D80023F0F1EF23F0E6EF23F0D8900736083600
:1047E8000350015C04500258D8A0FDEF23F0FFEFFE
:1047F80023F004EF24F00350015E0450025A0780AE
:10480800D89004320332052EF1EF23F00650D8B4C5
:1048180010EF24F012EF24F016EF24F0076C081EB6
:10482800D8B0082A07C001F008C002F01200076AD1
:10483800000E066E0150D96EDA6A6F007FFFF6FF30
:10484800200EF76E000EF86E0800F5502A0AD8A45C
:1048580030EF24F032EF24F05BEF24F00150D96EF2
:10486800DA6ADF2A0250D96EDA6A020EDF26DF5CC6
:10487800D96EDA6A6F0078FF06F06F0078FF07F0EC
:1048880071EF24F00A0E06026F00CCFF03F06F00F0
:10489800D0FF04F00702F350042605500324066EE7
:1048A800000E0420076E0150D96EDA6ADF2A015023
:1048B800D96EDA6A6F007FFFF6FF200EF76E000EE2
:1048C800F86E0800F550D00F056E090E05646FEFFD
:1048D80024F071EF24F046EF24F006C001F007C081
:1048E80002F012006AEC29F0000E046E460E056E06
:1048F8000550D8A4200E066E010EC0EC28F00A0E52
:10490800526E400E2D6E010E2E6E52C02FF0306A80
:10491800F5EC28F0000E046E400E056E066A020ED5
:10492800C0EC28F0516ABC86520E3F6E2A0EE82E63
:10493800FED73F2EFCD7BC96520E3F6E2A0EE82EAD
:10494800FED73F2EFCD7512A010E5164AEEF24F05A
:10495800B0EF24F097EF24F052065250D8A4B7EFE6
:1049680024F0B9EF24F085EF24F0000E046E680EF1
:10497800056E0550D8A4200E066E020EC0EC28F075
:10498800620E3F6E660EE82EFED73F2EFCD7BC9611
:10499800FF001200066A02BED6EF24F0D4EF24F01E
:1049A800DCEF24F0016C021ED8B0022A010E066E5C
:1049B80004BEE3EF24F0E1EF24F0E7EF24F0036C0A
:1049C800041ED8B0042A03500410D8B4EEEF24F023
:1049D800F0EF24F014EF25F0010E056EF8EF24F047
:1049E800D89003360436052A04AEFDEF24F0FFEF15
:1049F80024F0F4EF24F00350015C04500258D8A0CE
:104A080008EF25F00AEF25F00EEF25F00350015EC0
:104A18000450025AD89004320332052EFFEF24F0D6
:104A28000650D8B41AEF25F01CEF25F020EF25F03A
:104A3800016C021ED8B0022A01C001F002C002F0C7
:104A480012000350D8B42BEF25F02DEF25F035EFE9
:104A580025F00350D8A433EF25F035EF25F03AEFD1
:104A680025F0015076EC29F07AEF25F00350D96E45
:104A7800DA6A090ED926DE50DE10D8B446EF25F0E2
:104A880048EF25F061EF25F00350D96EDA6A090E78
:104A9800D9260350E16EE26A020EE126DE50E65C9A
:104AA800E650800A086EDE50800A0858D8B05FEFDA
:104AB80025F061EF25F07AEF25F00350D96EDA6A18
:104AC800020ED926DF50046E0350D96EDA6ADF5021
:104AD8000424D96EDA6A600007F0DFFF0350D96E4C
:104AE800DA6A020ED926DE2A000EDD221200000E36
:104AF800156E000E166E000E176E000E186E115011
:104B0800121013101410D8B48CEF25F08EEF25F086
:104B1800C4EF25F0010E196E98EF25F0D8901136E4
:104B2800123613361436192A14AE9DEF25F09FEF6E
:104B380025F092EF25F0D890153616361736183628
:104B480011500D5C12500E5813500F581450105835
:104B5800D8A0B1EF25F0B3EF25F0BCEF25F0115048
:104B68000D5E12500E5A13500F5A1450105A1580D9
:104B7800D8901432133212321132192E9FEF25F0C9
:104B880015C00DF016C00EF017C00FF018C010F0C9
:104B98001200A30E026E550EE82EFED7022EFCD789
:104BA8000000380E35EC29F0070E026E7D0EE82E57
:104BB800FED7022EFCD70000380E35EC29F0070E80
:104BC800026E7D0EE82EFED7022EFCD70000380EAE
:104BD80035EC29F0070E026E7D0EE82EFED7022E68
:104BE800FCD700000C0E35EC29F0070E026E7D0E86
:104BF800E82EFED7022EFCD70000060E35EC29F071
:104C0800070E026E7D0EE82EFED7022EFCD700009E
:104C1800010E35EC29F0070E026E7D0EE82EFED748
:104C2800022EFCD7000012005BA01DEF26F01FEF3C
:104C380026F025EF26F00FC009F00EC00AF087EC29
:104C480028F011BE2CEF26F02AEF26F02FEF26F0E1
:104C5800116A000E106E146A000E136E3DEF26F0F6
:104C6800026A200E016E0EC003F025EC25F0134AEF
:104C7800142A1050135C1450800A126E1150800AC6
:104C88001258D8A04AEF26F04CEF26F034EF26F061
:104C98005BB051EF26F053EF26F059EF26F00FC026
:104CA80009F00EC00AF087EC28F01200C280C28218
:104CB800C2843A014081408340850F0E3E01FD17B2
:104CC800F00EFD17FF6BF66BF76B200EF36FF46BAE
:104CD800F06BEF6BA40EF86F6AEC29F0000E046E0F
:104CE800790E056E0550D8A4200E066E010EC0EC94
:104CF80028F0020E1D6E450E1C6EAA0EE82EFED779
:104D08001C2EFCD71D2EFAD7000EA4EC28F001C0EB
:104D18001AF002C01BF0E1EC27F01AC0A4F01BC087
:104D2800A5F06AEC29F01200056A000E046E9FEFE8
:104D380026F0044A052A01500424D96EDA6ADF50A5
:104D4800D8A4A9EF26F0ABEF26F09DEF26F0B1EF3F
:104D580026F0044A052A024A032A60000BF0F6FFEF
:104D680060000FF0F7FF000EF86E01500424D96EB2
:104D7800DA6A1F0EF76403D00800F55007D06F00F9
:104D8800DBFFE1FF6F00DFFFE2FFE750DF6EDF5080
:104D9800D8A4D1EF26F0D3EF26F0ADEF26F012001D
:104DA800066A000E056E03500410D8B4DEEF26F034
:104DB800E0EF26F008EF27F0010E076EE8EF26F087
:104DC800D89003360436072A04AEEDEF26F0EFEF4D
:104DD80026F0E4EF26F0D890053606360350015C3D
:104DE80004500258D8A0FBEF26F0FDEF26F002EFA2
:104DF80027F00350015E0450025A0580D89004320F
:104E08000332072EEFEF26F005C001F006C002F0CE
:104E1800120028EF27F060000BF0F6FF60000FF09B
:104E2800F7FF000EF86E1F0EF76403D00800F55068
:104E380007D06F00DBFFE1FF6F00DFFFE2FFE75005
:104E480021EC29F0024A032A60000BF0F6FF60000B
:104E58000FF0F7FF000EF86E1F0EF76403D008007E
:104E6800F55007D06F00DBFFE1FF6F00DFFFE2FFC7
:104E7800E7500009D8A443EF27F045EF27F00FEFDC
:104E880027F01200000E096E000E0A6E000E0B6E5F
:104E9800000E0C6E01A053EF27F055EF27F05DEFE1
:104EA80027F00550092606500A2207500B22085001
:104EB8000C22D8900536063607360836D8900432C4
:104EC8000332023201320150021003100410D8A438
:104ED80070EF27F072EF27F04EEF27F009C001F0CE
:104EE8000AC002F00BC003F00CC004F0120041BE6F
:104EF80082EF27F080EF27F086EF27F0406C411E05
:104F0800D8B0412A40C001F041C002F0046A640EE2
:104F1800036EBBEC23F001C042F002C043F040C076
:104F280001F041C002F0046A640E036ECEEC24F076
:104F380001C044F002C045F03FC02DF0910E2E6E26
:104F480042C02FF043C030F044C031F045C032F0C9
:104F5800F5EC28F0120003500410D8B4B6EF27F08F
:104F6800B8EF27F0DCEF27F0010E056EC0EF27F051
:104F7800D89003360436052A04AEC5EF27F0C7EFEC
:104F880027F0BCEF27F00350015C04500258D8A06A
:104F9800D0EF27F0D2EF27F0D6EF27F00350015ECD
:104FA8000450025AD89004320332052EC7EF27F076
:104FB80001C001F002C002F012001AC001F01BC0CB
:104FC80002F0036A046AE40E056E0C0E066E000E0B
:104FD800076E000E086E46EC27F001C00DF002C007
:104FE8000EF003C00FF004C010F0FF0E116E0F0E8C
:104FF800126E000E136E000E146E7BEC25F00DC0C1
:105008001AF00EC01BF01200D50E0B6E030E0C6EBC
:105018000B5009026F00CCFF0DF06F00D0FF0EF0AF
:105028000A02F3500E260C500902F3500E260DC04A
:1050380001F00EC002F0046A640E036EBBEC23F0AC
:1050480001C009F002C00AF012002AC02CF035EFA6
:1050580028F029C020F02C0E216E2BC022F0A7ECDE
:1050680021F06000B3F0F6FF200EF76E000EF86E28
:105078000800F5500009D8A444EF28F046EF28F0BE
:105088002DEF28F02A6A000E296E12008E0E0924D0
:105098000D6EF90E0A200E6E640E0D026F00CCFF25
:1050A8000BF06F00D0FF0CF00E02F3500C260BC073
:1050B80001F00CC002F0010E046E4A0E036EBBEC48
:1050C80023F001C009F002C00AF0120001C004F088
:1050D800022A0204036E60000FF0F6FF200EF76E3E
:1050E800000EF86E042A0404D96EDA6A08006F000C
:1050F800D7FFDFFFDF50D8A484EF28F086EF28F031
:105108006CEF28F012000D6A000E0C6E95EF28F077
:105118000BC001F0026A0AC003F025EC25F00C4A26
:105128000D2A09500C24D96EDA6ADF500B6E0B5029
:10513800D8A4A1EF28F0A3EF28F08CEF28F01200F4
:10514800076E60001FF0F1FEA60EE82EFED700D015
:105158003E01F881F8B1B3EF28F0B5EF28F0AEEFD3
:1051680028F0F051036EEF51056E03C006F005C03C
:1051780001F006C002F01200076E0704D8A4C7EFBA
:1051880028F0C9EF28F0CEEF28F00450800F086E01
:10519800D1EF28F00450C00F086E085035EC29F004
:1051A80005C002F006C003F00DEC27F0120010BE97
:1051B800E0EF28F0E2EF28F0E8EF28F00FC00FF05A
:1051C80010C010F0F4EF28F00FC011F010C012F06A
:1051D800111E121E114A122A11C00FF012C010F02F
:1051E80012002F0E336E2DC034F0376A000E366E63
:1051F8003E6A000E3D6E340E296E2EC02AF0330E24
:105208002B6E29EC28F02D503624D96EDA6ADF6A25
:10521800120000EEA4F0230EEE6AE806FDE15B6AD8
:105228005A6A596A586A576A080ED56E400ED66E81
:10523800000ED76E000159EF20F0016E600007F0F4
:10524800BBFFBD80FA0E00D0E82EFDD7BD82FA0E56
:1052580000D0E82EFDD7BD92FA0E00D0E82EFDD77B
:105268001200016E600007F0BBFFBD90FA0E00D07F
:10527800E82EFDD7BD82FA0E00D0E82EFDD7BD92EC
:10528800FA0E00D0E82EFDD71200C4843A016095CA
:105298006185C4966097BC96659566856795390162
:1052A800A09F908FD28AD28ED28C12003A0167A525
:1052B80060EF29F062EF29F067EF29F0010E000195
:1052C800A66F3A0167953901A09F1100010E35ECD0
:1052D80029F0070E026E7D0EE82EFED7022EFCD7AF
:0652E8000000120012009C
:020000040030CA
:0A000000ECDFFFFF9FFFFFFFFFFF93
:00000001FF
