:100020000C0EC56E000ECD6E0F0E206E236EFB0EF5
:10003000216E000E226E106E116E21AE28EF00F0C0
:04004000A8EF01F034
:0C0050000F0E216480EF00F028EF01F09B
:0C0100000F0E2160A8EF00F000EF01F0EE
:08015000000E226E80EF01F0A9
:08020000010E226E80EF01F0F7
:08025000020E226E80EF01F0A6
:0A03000060008BF0CDFF00EF02F06B
:100350000000216C010E226E21C024F080EF01F01C
:100400000A0E2362236007EF02F00BEF02F0102ABE
:10041000235E00EF02F010C061F023C060F00A0E0E
:100420002462246016EF02F01AEF02F0112A245E13
:100430000FEF02F011C071F024C070F080EF02F0F5
:020500000000F9
:020000040030CA
:0A000000F8FFFFFF9FFFFFFFFFFF67
:00000001FF
